{
  "contractName": "RadiToken",
  "abi": [
    {
      "constant": true,
      "inputs": [],
      "name": "totalSupply",
      "outputs": [
        {
          "name": "",
          "type": "uint256"
        }
      ],
      "payable": false,
      "stateMutability": "view",
      "type": "function"
    },
    {
      "inputs": [],
      "payable": false,
      "stateMutability": "nonpayable",
      "type": "constructor"
    }
  ],
  "bytecode": "0x608060405234801561001057600080fd5b50620f4240600081905550609e806100296000396000f300608060405260043610603f576000357c0100000000000000000000000000000000000000000000000000000000900463ffffffff16806318160ddd146044575b600080fd5b348015604f57600080fd5b506056606c565b6040518082815260200191505060405180910390f35b600054815600a165627a7a723058204693671195954ed8caf6bbd664df910514be25144581360dc9fd2ea13a145b0c0029",
  "source": "pragma solidity ^0.4.2;\n\ncontract RadiToken{\n\n    uint256 public totalSupply;  \n\n    function RadiToken() public\n    {\n        totalSupply = 1000000;\n    }\n\n\n\n}\n\n//Constructor\n// Set the total number of tokens\n//Read the total number of tokens",
  "sourcePath": "/Users/radibarq/token_sale/contracts/RadiToken.sol",
  "compiler": {
    "name": "solc",
    "version": "0.4.24+commit.e67f0147.Emscripten.clang"
  },
  "schemaVersion": "2.0.1",
  "updatedAt": "2018-08-15T20:28:57.665Z"
}